{
    "contractName": "SmartWords",
    "abi": [
        {
            "inputs": [],
            "stateMutability": "nonpayable",
            "type": "constructor"
        },
        {
            "anonymous": false,
            "inputs": [
                {
                    "indexed": true,
                    "internalType": "address",
                    "name": "owner",
                    "type": "address"
                },
                {
                    "indexed": true,
                    "internalType": "address",
                    "name": "approved",
                    "type": "address"
                },
                {
                    "indexed": true,
                    "internalType": "uint256",
                    "name": "tokenId",
                    "type": "uint256"
                }
            ],
            "name": "Approval",
            "type": "event"
        },
        {
            "anonymous": false,
            "inputs": [
                {
                    "indexed": true,
                    "internalType": "address",
                    "name": "owner",
                    "type": "address"
                },
                {
                    "indexed": true,
                    "internalType": "address",
                    "name": "operator",
                    "type": "address"
                },
                {
                    "indexed": false,
                    "internalType": "bool",
                    "name": "approved",
                    "type": "bool"
                }
            ],
            "name": "ApprovalForAll",
            "type": "event"
        },
        {
            "anonymous": false,
            "inputs": [
                {
                    "indexed": true,
                    "internalType": "address",
                    "name": "from",
                    "type": "address"
                },
                {
                    "indexed": true,
                    "internalType": "address",
                    "name": "to",
                    "type": "address"
                },
                {
                    "indexed": true,
                    "internalType": "uint256",
                    "name": "tokenId",
                    "type": "uint256"
                }
            ],
            "name": "Transfer",
            "type": "event"
        },
        {
            "inputs": [
                {
                    "internalType": "address",
                    "name": "to",
                    "type": "address"
                },
                {
                    "internalType": "uint256",
                    "name": "tokenId",
                    "type": "uint256"
                }
            ],
            "name": "approve",
            "outputs": [],
            "stateMutability": "nonpayable",
            "type": "function"
        },
        {
            "inputs": [
                {
                    "internalType": "address",
                    "name": "owner",
                    "type": "address"
                }
            ],
            "name": "balanceOf",
            "outputs": [
                {
                    "internalType": "uint256",
                    "name": "",
                    "type": "uint256"
                }
            ],
            "stateMutability": "view",
            "type": "function"
        },
        {
            "inputs": [
                {
                    "internalType": "uint256",
                    "name": "tokenId",
                    "type": "uint256"
                }
            ],
            "name": "getApproved",
            "outputs": [
                {
                    "internalType": "address",
                    "name": "",
                    "type": "address"
                }
            ],
            "stateMutability": "view",
            "type": "function"
        },
        {
            "inputs": [
                {
                    "internalType": "uint256",
                    "name": "textId",
                    "type": "uint256"
                }
            ],
            "name": "getTextHashOf",
            "outputs": [
                {
                    "internalType": "bytes32",
                    "name": "",
                    "type": "bytes32"
                }
            ],
            "stateMutability": "view",
            "type": "function"
        },
        {
            "inputs": [
                {
                    "internalType": "uint256",
                    "name": "textId",
                    "type": "uint256"
                }
            ],
            "name": "getTextInfo",
            "outputs": [
                {
                    "internalType": "string",
                    "name": "",
                    "type": "string"
                },
                {
                    "internalType": "bytes32",
                    "name": "",
                    "type": "bytes32"
                },
                {
                    "internalType": "uint256",
                    "name": "",
                    "type": "uint256"
                }
            ],
            "stateMutability": "view",
            "type": "function"
        },
        {
            "inputs": [
                {
                    "internalType": "uint256",
                    "name": "textId",
                    "type": "uint256"
                }
            ],
            "name": "getTimestampOf",
            "outputs": [
                {
                    "internalType": "uint256",
                    "name": "",
                    "type": "uint256"
                }
            ],
            "stateMutability": "view",
            "type": "function"
        },
        {
            "inputs": [
                {
                    "internalType": "uint256",
                    "name": "textId",
                    "type": "uint256"
                }
            ],
            "name": "getTitleOf",
            "outputs": [
                {
                    "internalType": "string",
                    "name": "",
                    "type": "string"
                }
            ],
            "stateMutability": "view",
            "type": "function"
        },
        {
            "inputs": [
                {
                    "internalType": "address",
                    "name": "owner",
                    "type": "address"
                },
                {
                    "internalType": "address",
                    "name": "operator",
                    "type": "address"
                }
            ],
            "name": "isApprovedForAll",
            "outputs": [
                {
                    "internalType": "bool",
                    "name": "",
                    "type": "bool"
                }
            ],
            "stateMutability": "view",
            "type": "function"
        },
        {
            "inputs": [
                {
                    "internalType": "bytes32",
                    "name": "textHash_",
                    "type": "bytes32"
                }
            ],
            "name": "isHashes",
            "outputs": [
                {
                    "internalType": "address",
                    "name": "",
                    "type": "address"
                }
            ],
            "stateMutability": "view",
            "type": "function"
        },
        {
            "inputs": [],
            "name": "name",
            "outputs": [
                {
                    "internalType": "string",
                    "name": "",
                    "type": "string"
                }
            ],
            "stateMutability": "view",
            "type": "function"
        },
        {
            "inputs": [
                {
                    "internalType": "uint256",
                    "name": "tokenId",
                    "type": "uint256"
                }
            ],
            "name": "ownerOf",
            "outputs": [
                {
                    "internalType": "address",
                    "name": "",
                    "type": "address"
                }
            ],
            "stateMutability": "view",
            "type": "function"
        },
        {
            "inputs": [
                {
                    "internalType": "string",
                    "name": "title_",
                    "type": "string"
                },
                {
                    "internalType": "bytes32",
                    "name": "textHash_",
                    "type": "bytes32"
                },
                {
                    "internalType": "string",
                    "name": "nftURI_",
                    "type": "string"
                }
            ],
            "name": "registerText",
            "outputs": [
                {
                    "internalType": "uint256",
                    "name": "",
                    "type": "uint256"
                }
            ],
            "stateMutability": "nonpayable",
            "type": "function"
        },
        {
            "inputs": [
                {
                    "internalType": "address",
                    "name": "from",
                    "type": "address"
                },
                {
                    "internalType": "address",
                    "name": "to",
                    "type": "address"
                },
                {
                    "internalType": "uint256",
                    "name": "tokenId",
                    "type": "uint256"
                }
            ],
            "name": "safeTransferFrom",
            "outputs": [],
            "stateMutability": "nonpayable",
            "type": "function"
        },
        {
            "inputs": [
                {
                    "internalType": "address",
                    "name": "from",
                    "type": "address"
                },
                {
                    "internalType": "address",
                    "name": "to",
                    "type": "address"
                },
                {
                    "internalType": "uint256",
                    "name": "tokenId",
                    "type": "uint256"
                },
                {
                    "internalType": "bytes",
                    "name": "_data",
                    "type": "bytes"
                }
            ],
            "name": "safeTransferFrom",
            "outputs": [],
            "stateMutability": "nonpayable",
            "type": "function"
        },
        {
            "inputs": [
                {
                    "internalType": "address",
                    "name": "operator",
                    "type": "address"
                },
                {
                    "internalType": "bool",
                    "name": "approved",
                    "type": "bool"
                }
            ],
            "name": "setApprovalForAll",
            "outputs": [],
            "stateMutability": "nonpayable",
            "type": "function"
        },
        {
            "inputs": [
                {
                    "internalType": "bytes4",
                    "name": "interfaceId",
                    "type": "bytes4"
                }
            ],
            "name": "supportsInterface",
            "outputs": [
                {
                    "internalType": "bool",
                    "name": "",
                    "type": "bool"
                }
            ],
            "stateMutability": "view",
            "type": "function"
        },
        {
            "inputs": [],
            "name": "symbol",
            "outputs": [
                {
                    "internalType": "string",
                    "name": "",
                    "type": "string"
                }
            ],
            "stateMutability": "view",
            "type": "function"
        },
        {
            "inputs": [
                {
                    "internalType": "uint256",
                    "name": "index",
                    "type": "uint256"
                }
            ],
            "name": "tokenByIndex",
            "outputs": [
                {
                    "internalType": "uint256",
                    "name": "",
                    "type": "uint256"
                }
            ],
            "stateMutability": "view",
            "type": "function"
        },
        {
            "inputs": [
                {
                    "internalType": "address",
                    "name": "owner",
                    "type": "address"
                },
                {
                    "internalType": "uint256",
                    "name": "index",
                    "type": "uint256"
                }
            ],
            "name": "tokenOfOwnerByIndex",
            "outputs": [
                {
                    "internalType": "uint256",
                    "name": "",
                    "type": "uint256"
                }
            ],
            "stateMutability": "view",
            "type": "function"
        },
        {
            "inputs": [
                {
                    "internalType": "uint256",
                    "name": "tokenId",
                    "type": "uint256"
                }
            ],
            "name": "tokenURI",
            "outputs": [
                {
                    "internalType": "string",
                    "name": "",
                    "type": "string"
                }
            ],
            "stateMutability": "view",
            "type": "function"
        },
        {
            "inputs": [],
            "name": "totalSupply",
            "outputs": [
                {
                    "internalType": "uint256",
                    "name": "",
                    "type": "uint256"
                }
            ],
            "stateMutability": "view",
            "type": "function"
        },
        {
            "inputs": [
                {
                    "internalType": "address",
                    "name": "from",
                    "type": "address"
                },
                {
                    "internalType": "address",
                    "name": "to",
                    "type": "address"
                },
                {
                    "internalType": "uint256",
                    "name": "tokenId",
                    "type": "uint256"
                }
            ],
            "name": "transferFrom",
            "outputs": [],
            "stateMutability": "nonpayable",
            "type": "function"
        }
    ],
    "bytecode": "60806040523480156200001157600080fd5b506040805180820182526006815265135e55195e1d60d21b6020808301918252835180850190945260048452631355161560e21b9084015281519192916200005c916000916200007b565b508051620000729060019060208401906200007b565b5050506200015e565b828054620000899062000121565b90600052602060002090601f016020900481019282620000ad5760008555620000f8565b82601f10620000c857805160ff1916838001178555620000f8565b82800160010185558215620000f8579182015b82811115620000f8578251825591602001919060010190620000db565b50620001069291506200010a565b5090565b5b808211156200010657600081556001016200010b565b600181811c908216806200013657607f821691505b602082108114156200015857634e487b7160e01b600052602260045260246000fd5b50919050565b61206d806200016e6000396000f3fe608060405234801561001057600080fd5b50600436106101425760003560e01c806346f3a027116100b8578063a22cb4651161007c578063a22cb465146102af578063afeb8acb146102c2578063b88d4fde146102d5578063c87b56dd146102e8578063e985e9c5146102fb578063ecf27bca1461033757600080fd5b806346f3a0271461025b5780634f6ccce71461026e5780636352211e1461028157806370a082311461029457806395d89b41146102a757600080fd5b80630a37d8b81161010a5780630a37d8b8146101e557806318160ddd1461020757806321af07b01461020f57806323b872dd146102225780632f745c591461023557806342842e0e1461024857600080fd5b806301ffc9a71461014757806302470ed11461016f57806306fdde0314610190578063081812fc146101a5578063095ea7b3146101d0575b600080fd5b61015a610155366004611cbd565b610360565b60405190151581526020015b60405180910390f35b61018261017d366004611cf7565b610371565b604051908152602001610166565b6101986104aa565b6040516101669190611dfc565b6101b86101b3366004611ca4565b61053c565b6040516001600160a01b039091168152602001610166565b6101e36101de366004611c7a565b6105c4565b005b6101f86101f3366004611ca4565b6106da565b60405161016693929190611e0f565b600954610182565b61018261021d366004611ca4565b6107c0565b6101e3610230366004611b86565b610890565b610182610243366004611c7a565b6108c1565b6101e3610256366004611b86565b610957565b610198610269366004611ca4565b610972565b61018261027c366004611ca4565b610a43565b6101b861028f366004611ca4565b610ad6565b6101826102a2366004611b38565b610b4d565b610198610bd4565b6101e36102bd366004611c3e565b610be3565b6101826102d0366004611ca4565b610ca8565b6101e36102e3366004611bc2565b610d73565b6101986102f6366004611ca4565b610dab565b61015a610309366004611b53565b6001600160a01b03918216600090815260056020908152604080832093909416825291909152205460ff1690565b6101b8610345366004611ca4565b6000908152600d60205260409020546001600160a01b031690565b600061036b82610db6565b92915050565b6000828152600d60205260408120546001600160a01b0316156104015760405162461bcd60e51b815260206004820152603f60248201527f536d617274576f7264733a205468697320746578742068617320616c7265616460448201527f79206265656e20726567697374726564207769746820636f707972696768740060648201526084015b60405180910390fd5b600061040c600b5490565b90506104183382610ddb565b610426600b80546001019055565b6000848152600d6020908152604080832080546001600160a01b03191633179055805160608101825288815280830188905242818301819052858552600c84529190932083518051929493919261048092849201906119ed565b50602082015160018201556040909101516002909101556104a18285610f1a565b50949350505050565b6060600080546104b990611f46565b80601f01602080910402602001604051908101604052809291908181526020018280546104e590611f46565b80156105325780601f1061050757610100808354040283529160200191610532565b820191906000526020600020905b81548152906001019060200180831161051557829003601f168201915b5050505050905090565b600061054782610fa5565b6105a85760405162461bcd60e51b815260206004820152602c60248201527f4552433732313a20617070726f76656420717565727920666f72206e6f6e657860448201526b34b9ba32b73a103a37b5b2b760a11b60648201526084016103f8565b506000908152600460205260409020546001600160a01b031690565b60006105cf82610ad6565b9050806001600160a01b0316836001600160a01b0316141561063d5760405162461bcd60e51b815260206004820152602160248201527f4552433732313a20617070726f76616c20746f2063757272656e74206f776e656044820152603960f91b60648201526084016103f8565b336001600160a01b038216148061065957506106598133610309565b6106cb5760405162461bcd60e51b815260206004820152603860248201527f4552433732313a20617070726f76652063616c6c6572206973206e6f74206f7760448201527f6e6572206e6f7220617070726f76656420666f7220616c6c000000000000000060648201526084016103f8565b6106d58383610fc2565b505050565b60606000806000600c600086815260200190815260200160002060405180606001604052908160008201805461070f90611f46565b80601f016020809104026020016040519081016040528092919081815260200182805461073b90611f46565b80156107885780601f1061075d57610100808354040283529160200191610788565b820191906000526020600020905b81548152906001019060200180831161076b57829003601f168201915b505050918352505060018201546020808301919091526002909201546040918201528251918301519201519097919650945092505050565b6000818152600c6020526040808220815160608101909252805483929190829082906107eb90611f46565b80601f016020809104026020016040519081016040528092919081815260200182805461081790611f46565b80156108645780601f1061083957610100808354040283529160200191610864565b820191906000526020600020905b81548152906001019060200180831161084757829003601f168201915b505050505081526020016001820154815260200160028201548152505090508060200151915050919050565b61089a3382611030565b6108b65760405162461bcd60e51b81526004016103f890611e86565b6106d583838361111a565b60006108cc83610b4d565b821061092e5760405162461bcd60e51b815260206004820152602b60248201527f455243373231456e756d657261626c653a206f776e657220696e646578206f7560448201526a74206f6620626f756e647360a81b60648201526084016103f8565b506001600160a01b03919091166000908152600760209081526040808320938352929052205490565b6106d583838360405180602001604052806000815250610d73565b60606000600c60008481526020019081526020016000206040518060600160405290816000820180546109a490611f46565b80601f01602080910402602001604051908101604052809291908181526020018280546109d090611f46565b8015610a1d5780601f106109f257610100808354040283529160200191610a1d565b820191906000526020600020905b815481529060010190602001808311610a0057829003601f168201915b505050918352505060018201546020820152600290910154604090910152519392505050565b6000610a4e60095490565b8210610ab15760405162461bcd60e51b815260206004820152602c60248201527f455243373231456e756d657261626c653a20676c6f62616c20696e646578206f60448201526b7574206f6620626f756e647360a01b60648201526084016103f8565b60098281548110610ac457610ac4611ff2565b90600052602060002001549050919050565b6000818152600260205260408120546001600160a01b03168061036b5760405162461bcd60e51b815260206004820152602960248201527f4552433732313a206f776e657220717565727920666f72206e6f6e657869737460448201526832b73a103a37b5b2b760b91b60648201526084016103f8565b60006001600160a01b038216610bb85760405162461bcd60e51b815260206004820152602a60248201527f4552433732313a2062616c616e636520717565727920666f7220746865207a65604482015269726f206164647265737360b01b60648201526084016103f8565b506001600160a01b031660009081526003602052604090205490565b6060600180546104b990611f46565b6001600160a01b038216331415610c3c5760405162461bcd60e51b815260206004820152601960248201527f4552433732313a20617070726f766520746f2063616c6c65720000000000000060448201526064016103f8565b3360008181526005602090815260408083206001600160a01b03871680855290835292819020805460ff191686151590811790915590519081529192917f17307eab39ab6107e8899845ad3d59bd9653f200f220920489ca2b5937696c31910160405180910390a35050565b6000818152600c602052604080822081516060810190925280548392919082908290610cd390611f46565b80601f0160208091040260200160405190810160405280929190818152602001828054610cff90611f46565b8015610d4c5780601f10610d2157610100808354040283529160200191610d4c565b820191906000526020600020905b815481529060010190602001808311610d2f57829003601f168201915b50505091835250506001820154602082015260029091015460409182015201519392505050565b610d7d3383611030565b610d995760405162461bcd60e51b81526004016103f890611e86565b610da5848484846112c5565b50505050565b606061036b826112f8565b60006001600160e01b0319821663780e9d6360e01b148061036b575061036b82611467565b6001600160a01b038216610e315760405162461bcd60e51b815260206004820181905260248201527f4552433732313a206d696e7420746f20746865207a65726f206164647265737360448201526064016103f8565b610e3a81610fa5565b15610e875760405162461bcd60e51b815260206004820152601c60248201527f4552433732313a20746f6b656e20616c7265616479206d696e7465640000000060448201526064016103f8565b610e93600083836114b7565b6001600160a01b0382166000908152600360205260408120805460019290610ebc908490611ed7565b909155505060008181526002602052604080822080546001600160a01b0319166001600160a01b03861690811790915590518392907fddf252ad1be2c89b69c2b068fc378daa952ba7f163c4a11628f55a4df523b3ef908290a45050565b610f2382610fa5565b610f865760405162461bcd60e51b815260206004820152602e60248201527f45524337323155524953746f726167653a2055524920736574206f66206e6f6e60448201526d32bc34b9ba32b73a103a37b5b2b760911b60648201526084016103f8565b600082815260066020908152604090912082516106d5928401906119ed565b6000908152600260205260409020546001600160a01b0316151590565b600081815260046020526040902080546001600160a01b0319166001600160a01b0384169081179091558190610ff782610ad6565b6001600160a01b03167f8c5be1e5ebec7d5bd14f71427d1e84f3dd0314c0f7b2291e5b200ac8c7c3b92560405160405180910390a45050565b600061103b82610fa5565b61109c5760405162461bcd60e51b815260206004820152602c60248201527f4552433732313a206f70657261746f7220717565727920666f72206e6f6e657860448201526b34b9ba32b73a103a37b5b2b760a11b60648201526084016103f8565b60006110a783610ad6565b9050806001600160a01b0316846001600160a01b031614806110e25750836001600160a01b03166110d78461053c565b6001600160a01b0316145b8061111257506001600160a01b0380821660009081526005602090815260408083209388168352929052205460ff165b949350505050565b826001600160a01b031661112d82610ad6565b6001600160a01b0316146111955760405162461bcd60e51b815260206004820152602960248201527f4552433732313a207472616e73666572206f6620746f6b656e2074686174206960448201526839903737ba1037bbb760b91b60648201526084016103f8565b6001600160a01b0382166111f75760405162461bcd60e51b8152602060048201526024808201527f4552433732313a207472616e7366657220746f20746865207a65726f206164646044820152637265737360e01b60648201526084016103f8565b6112028383836114b7565b61120d600082610fc2565b6001600160a01b0383166000908152600360205260408120805460019290611236908490611f03565b90915550506001600160a01b0382166000908152600360205260408120805460019290611264908490611ed7565b909155505060008181526002602052604080822080546001600160a01b0319166001600160a01b0386811691821790925591518493918716917fddf252ad1be2c89b69c2b068fc378daa952ba7f163c4a11628f55a4df523b3ef91a4505050565b6112d084848461111a565b6112dc848484846114c2565b610da55760405162461bcd60e51b81526004016103f890611e34565b606061130382610fa5565b6113695760405162461bcd60e51b815260206004820152603160248201527f45524337323155524953746f726167653a2055524920717565727920666f72206044820152703737b732bc34b9ba32b73a103a37b5b2b760791b60648201526084016103f8565b6000828152600660205260408120805461138290611f46565b80601f01602080910402602001604051908101604052809291908181526020018280546113ae90611f46565b80156113fb5780601f106113d0576101008083540402835291602001916113fb565b820191906000526020600020905b8154815290600101906020018083116113de57829003601f168201915b50505050509050600061141960408051602081019091526000815290565b905080516000141561142c575092915050565b81511561145e578082604051602001611446929190611d90565b60405160208183030381529060405292505050919050565b611112846115cf565b60006001600160e01b031982166380ac58cd60e01b148061149857506001600160e01b03198216635b5e139f60e01b145b8061036b57506301ffc9a760e01b6001600160e01b031983161461036b565b6106d58383836116a7565b60006001600160a01b0384163b156115c457604051630a85bd0160e11b81526001600160a01b0385169063150b7a0290611506903390899088908890600401611dbf565b602060405180830381600087803b15801561152057600080fd5b505af1925050508015611550575060408051601f3d908101601f1916820190925261154d91810190611cda565b60015b6115aa573d80801561157e576040519150601f19603f3d011682016040523d82523d6000602084013e611583565b606091505b5080516115a25760405162461bcd60e51b81526004016103f890611e34565b805181602001fd5b6001600160e01b031916630a85bd0160e11b149050611112565b506001949350505050565b60606115da82610fa5565b61163e5760405162461bcd60e51b815260206004820152602f60248201527f4552433732314d657461646174613a2055524920717565727920666f72206e6f60448201526e3732bc34b9ba32b73a103a37b5b2b760891b60648201526084016103f8565b600061165560408051602081019091526000815290565b9050600081511161167557604051806020016040528060008152506116a0565b8061167f8461175f565b604051602001611690929190611d90565b6040516020818303038152906040525b9392505050565b6001600160a01b038316611702576116fd81600980546000838152600a60205260408120829055600182018355919091527f6e1540171b6c0c960b71a7020d9f60077f6af931a8bbf590da0223dacf75c7af0155565b611725565b816001600160a01b0316836001600160a01b03161461172557611725838261185d565b6001600160a01b03821661173c576106d5816118fa565b826001600160a01b0316826001600160a01b0316146106d5576106d582826119a9565b6060816117835750506040805180820190915260018152600360fc1b602082015290565b8160005b81156117ad578061179781611f81565b91506117a69050600a83611eef565b9150611787565b60008167ffffffffffffffff8111156117c8576117c8612008565b6040519080825280601f01601f1916602001820160405280156117f2576020820181803683370190505b5090505b841561111257611807600183611f03565b9150611814600a86611f9c565b61181f906030611ed7565b60f81b81838151811061183457611834611ff2565b60200101906001600160f81b031916908160001a905350611856600a86611eef565b94506117f6565b6000600161186a84610b4d565b6118749190611f03565b6000838152600860205260409020549091508082146118c7576001600160a01b03841660009081526007602090815260408083208584528252808320548484528184208190558352600890915290208190555b5060009182526008602090815260408084208490556001600160a01b039094168352600781528383209183525290812055565b60095460009061190c90600190611f03565b6000838152600a60205260408120546009805493945090928490811061193457611934611ff2565b90600052602060002001549050806009838154811061195557611955611ff2565b6000918252602080832090910192909255828152600a9091526040808220849055858252812055600980548061198d5761198d611fdc565b6001900381819060005260206000200160009055905550505050565b60006119b483610b4d565b6001600160a01b039093166000908152600760209081526040808320868452825280832085905593825260089052919091209190915550565b8280546119f990611f46565b90600052602060002090601f016020900481019282611a1b5760008555611a61565b82601f10611a3457805160ff1916838001178555611a61565b82800160010185558215611a61579182015b82811115611a61578251825591602001919060010190611a46565b50611a6d929150611a71565b5090565b5b80821115611a6d5760008155600101611a72565b600067ffffffffffffffff80841115611aa157611aa1612008565b604051601f8501601f19908116603f01168101908282118183101715611ac957611ac9612008565b81604052809350858152868686011115611ae257600080fd5b858560208301376000602087830101525050509392505050565b80356001600160a01b0381168114611b1357600080fd5b919050565b600082601f830112611b2957600080fd5b6116a083833560208501611a86565b600060208284031215611b4a57600080fd5b6116a082611afc565b60008060408385031215611b6657600080fd5b611b6f83611afc565b9150611b7d60208401611afc565b90509250929050565b600080600060608486031215611b9b57600080fd5b611ba484611afc565b9250611bb260208501611afc565b9150604084013590509250925092565b60008060008060808587031215611bd857600080fd5b611be185611afc565b9350611bef60208601611afc565b925060408501359150606085013567ffffffffffffffff811115611c1257600080fd5b8501601f81018713611c2357600080fd5b611c3287823560208401611a86565b91505092959194509250565b60008060408385031215611c5157600080fd5b611c5a83611afc565b915060208301358015158114611c6f57600080fd5b809150509250929050565b60008060408385031215611c8d57600080fd5b611c9683611afc565b946020939093013593505050565b600060208284031215611cb657600080fd5b5035919050565b600060208284031215611ccf57600080fd5b81356116a08161201e565b600060208284031215611cec57600080fd5b81516116a08161201e565b600080600060608486031215611d0c57600080fd5b833567ffffffffffffffff80821115611d2457600080fd5b611d3087838801611b18565b9450602086013593506040860135915080821115611d4d57600080fd5b50611d5a86828701611b18565b9150509250925092565b60008151808452611d7c816020860160208601611f1a565b601f01601f19169290920160200192915050565b60008351611da2818460208801611f1a565b835190830190611db6818360208801611f1a565b01949350505050565b6001600160a01b0385811682528416602082015260408101839052608060608201819052600090611df290830184611d64565b9695505050505050565b6020815260006116a06020830184611d64565b606081526000611e226060830186611d64565b60208301949094525060400152919050565b60208082526032908201527f4552433732313a207472616e7366657220746f206e6f6e20455243373231526560408201527131b2b4bb32b91034b6b83632b6b2b73a32b960711b606082015260800190565b60208082526031908201527f4552433732313a207472616e736665722063616c6c6572206973206e6f74206f6040820152701ddb995c881b9bdc88185c1c1c9bdd9959607a1b606082015260800190565b60008219821115611eea57611eea611fb0565b500190565b600082611efe57611efe611fc6565b500490565b600082821015611f1557611f15611fb0565b500390565b60005b83811015611f35578181015183820152602001611f1d565b83811115610da55750506000910152565b600181811c90821680611f5a57607f821691505b60208210811415611f7b57634e487b7160e01b600052602260045260246000fd5b50919050565b6000600019821415611f9557611f95611fb0565b5060010190565b600082611fab57611fab611fc6565b500690565b634e487b7160e01b600052601160045260246000fd5b634e487b7160e01b600052601260045260246000fd5b634e487b7160e01b600052603160045260246000fd5b634e487b7160e01b600052603260045260246000fd5b634e487b7160e01b600052604160045260246000fd5b6001600160e01b03198116811461203457600080fd5b5056fea264697066735822122099a86e4b90980a83ed33ee31e374cd9fedfda9fe1854368461939d84db9a489e64736f6c63430008060033",
    "sourcePath": "/home/savel/Alyra/SmartWords/contracts/SmartWords.sol",
    "compiler": {
        "name": "solc",
        "version": "0.8.6+commit.11564f7e"
    },
    "functionHashes": {
        "approve(address,uint256)": "095ea7b3",
        "balanceOf(address)": "70a08231",
        "getApproved(uint256)": "081812fc",
        "getTextHashOf(uint256)": "21af07b0",
        "getTextInfo(uint256)": "0a37d8b8",
        "getTimestampOf(uint256)": "afeb8acb",
        "getTitleOf(uint256)": "46f3a027",
        "isApprovedForAll(address,address)": "e985e9c5",
        "isHashes(bytes32)": "ecf27bca",
        "name()": "06fdde03",
        "ownerOf(uint256)": "6352211e",
        "registerText(string,bytes32,string)": "02470ed1",
        "safeTransferFrom(address,address,uint256)": "42842e0e",
        "safeTransferFrom(address,address,uint256,bytes)": "b88d4fde",
        "setApprovalForAll(address,bool)": "a22cb465",
        "supportsInterface(bytes4)": "01ffc9a7",
        "symbol()": "95d89b41",
        "tokenByIndex(uint256)": "4f6ccce7",
        "tokenOfOwnerByIndex(address,uint256)": "2f745c59",
        "tokenURI(uint256)": "c87b56dd",
        "totalSupply()": "18160ddd",
        "transferFrom(address,address,uint256)": "23b872dd"
    },
    "gasEstimates": {
        "creation": {
            "codeDepositCost": "1660200",
            "executionCost": "infinite",
            "totalCost": "infinite"
        },
        "external": {
            "approve(address,uint256)": "infinite",
            "balanceOf(address)": "2678",
            "getApproved(uint256)": "4821",
            "getTextHashOf(uint256)": "infinite",
            "getTextInfo(uint256)": "infinite",
            "getTimestampOf(uint256)": "infinite",
            "getTitleOf(uint256)": "infinite",
            "isApprovedForAll(address,address)": "infinite",
            "isHashes(bytes32)": "2609",
            "name()": "infinite",
            "ownerOf(uint256)": "2623",
            "registerText(string,bytes32,string)": "infinite",
            "safeTransferFrom(address,address,uint256)": "infinite",
            "safeTransferFrom(address,address,uint256,bytes)": "infinite",
            "setApprovalForAll(address,bool)": "26650",
            "supportsInterface(bytes4)": "infinite",
            "symbol()": "infinite",
            "tokenByIndex(uint256)": "6760",
            "tokenOfOwnerByIndex(address,uint256)": "5041",
            "tokenURI(uint256)": "infinite",
            "totalSupply()": "2337",
            "transferFrom(address,address,uint256)": "infinite"
        },
        "internal": {
            "_baseURI()": "infinite",
            "_beforeTokenTransfer(address,address,uint256)": "infinite",
            "_burn(uint256)": "infinite"
        }
    }
}